:020000040800F2
:1000000000500020110700080D0700080D07000828
:100010000D0700080D0700080D070008000000008C
:100020000000000000000000000000000D070008B4
:100030000D07000800000000210A00083101000837
:100040000D0700080D0700080D0700080D07000840
:100050000D0700080D0700080D0700080D07000830
:100060000D0700080D0700080D0700080D07000820
:100070000D0700080D0700080D0700080D07000810
:100080000D0700080D0700080D0700080D07000800
:100090000D0700080D0700080D0700080D070008F0
:1000A0000D0700080D0700080D0700080D070008E0
:1000B0000D0700080D0700080D0700080D070008D0
:1000C0000D0700080D0700080D0700080D070008C0
:1000D0000D0700080D0700080D0700080D070008B0
:1000E0000D0700080D0700080D0700080D070008A0
:1000F0000D0700080D0700080D0700080D07000890
:100100000D0700080D0700080D0700080D0700087F
:100110000D0700080D0700080D0700080D0700086F
:100120000D0700080D0700080D0700080D0700085F
:1001300000F0AEBEF8B5054600200F4600F062FDA7
:1001400000213C22084600F06FFD0021084600F027
:100150007FFD47F0B001002000F07AFD002000F0A4
:1001600085FD002000F04EFD00213C22084600F0F5
:100170005BFD0021084600F06BFD05F00F0100203B
:1001800000F066FD002000F071FD002000F03AFD57
:1001900000213C22084600F047FD0021084600F0FF
:1001A00057FD290941F01001002000F051FD002009
:1001B00000F05CFD002000F025FD00213C220846F7
:1001C0000B4C00F031FD40210020661D00F040FD89
:1001D00014F8011B002000F03BFDB442F8D10021CF
:1001E000084600F035FDBDE8F840002000F03EBDB7
:1001F0004C0F000808B5002000F004FD00213C224F
:10020000084600F011FD0021084600F021FDAE2156
:10021000002000F01DFD002000F028FD002000F06F
:10022000F1FC00213C22084600F0FEFC00210846BB
:1002300000F00EFD2021002000F00AFD002000F05B
:1002400015FD002000F0DEFC00213C22084600F0F5
:10025000EBFC0021084600F0FBFC1021002000F020
:10026000F7FC002000F002FD002000F0CBFC002194
:100270003C22084600F0D8FC0021084600F0E8FCCB
:10028000B021002000F0E4FC002000F0EFFC002092
:1002900000F0B8FC00213C22084600F0C5FC00211B
:1002A000084600F0D5FCC821002000F0D1FC002059
:1002B00000F0DCFC002000F0A5FC00213C220846F8
:1002C00000F0B2FC0021084600F0C2FC0021084604
:1002D00000F0BEFC002000F0C9FC002000F092FC01
:1002E00000213C22084600F09FFC0021084600F057
:1002F000AFFC1021002000F0ABFC002000F0B6FCA9
:10030000002000F07FFC00213C22084600F08CFC1D
:100310000021084600F09CFC4021002000F098FCE1
:10032000002000F0A3FC002000F06CFC00213C2227
:10033000084600F079FC0021084600F089FC812184
:10034000002000F085FC002000F090FC002000F070
:1003500059FC00213C22084600F066FC00210846BA
:1003600000F076FCFF21002000F072FC002000F07D
:100370007DFC002000F046FC00213C22084600F0F5
:1003800053FC0021084600F063FCA121002000F08E
:100390005FFC002000F06AFC002000F033FC00212C
:1003A0003C22084600F040FC0021084600F050FCCA
:1003B000A621002000F04CFC002000F057FC00209B
:1003C00000F020FC00213C22084600F02DFC00211A
:1003D000084600F03DFCA821002000F039FC002078
:1003E00000F044FC002000F00DFC00213C220846F7
:1003F00000F01AFC0021084600F02AFC3F210020F2
:1004000000F026FC002000F031FC002000F0FAFB98
:1004100000213C22084600F007FC0021084600F0BD
:1004200017FCA421002000F013FC002000F01EFCAB
:10043000002000F0E7FB00213C22084600F0F4FB1E
:100440000021084600F004FCD321002000F000FC4D
:10045000002000F00BFC002000F0D4FB00213C2227
:10046000084600F0E1FB0021084600F0F1FB002106
:10047000084600F0EDFB002000F0F8FB002000F043
:10048000C1FB00213C22084600F0CEFB00210846BB
:1004900000F0DEFBD521002000F0DAFB002000F0A8
:1004A000E5FB002000F0AEFB00213C22084600F0F6
:1004B000BBFB0021084600F0CBFBF021002000F040
:1004C000C7FB002000F0D2FB002000F09BFB0021C6
:1004D0003C22084600F0A8FB0021084600F0B8FBCB
:1004E000D921002000F0B4FB002000F0BFFB002069
:1004F00000F088FB00213C22084600F095FB00211B
:10050000084600F0A5FB2221002000F0A1FB0020FE
:1005100000F0ACFB002000F075FB00213C220846F7
:1005200000F082FB0021084600F092FBDA21002057
:1005300000F08EFB002000F099FB002000F062FB31
:1005400000213C22084600F06FFB0021084600F025
:100550007FFB1221002000F07BFB002000F086FBD7
:10056000002000F04FFB00213C22084600F05CFB1D
:100570000021084600F06CFBDB21002000F068FB46
:10058000002000F073FB002000F03CFB00213C2227
:10059000084600F049FB0021084600F059FB2021E5
:1005A000002000F055FB002000F060FB002000F070
:1005B00029FB00213C22084600F036FB00210846BA
:1005C00000F046FB8D21002000F042FB002000F0EF
:1005D0004DFB002000F016FB00213C22084600F0F5
:1005E00023FB0021084600F033FB1421002000F01B
:1005F0002FFB002000F03AFB002000F003FB00215D
:100600003C22084600F010FB0021084600F020FBC9
:100610000020AF2100F01CFBBDE80840002000F0E6
:1006200025BB00BF38B50025002000F0EBFA002103
:100630003C22084600F0F8FA0021084600F008FBCA
:1006400065F04F01C9B2002000F002FB002000F06D
:100650000DFB002000F0D6FA00213C22084600F0F5
:10066000E3FA0021084600F0F3FA0021084600F002
:10067000EFFA002000F0FAFA002000F0C3FA00219F
:100680003C22084600F0D0FA0021084600F0E0FACB
:100690001021002000F0DCFA002000F0E7FA002032
:1006A00000F0B0FA00213C22084600F0BDFA4021DB
:1006B0000020802400F0CCFA0021084600F0C8FA9F
:1006C000601E10F0FF04F7D12046013500F0CEFA8D
:1006D000082DA9D138BD00BF08B5094800F088FB36
:1006E000084800F0DDFB084800F02AFAFFF782FD19
:1006F000FFF798FF00210846FFF71CFDFEE700BF4B
:10070000300000200000002008000020FEE700BFAD
:10071000094A0A4808B5121A02D0094900F000FC3B
:10072000084A0948121A02D0002100F007FCBDE86F
:100730000840FFF7D1BF00BF4400002000000020A8
:100740003010000890150020440000201C4B10B40D
:1007500098420ED81B4A136843F008031360194BE4
:100760001A6822F007021A601A681A60002010BC8A
:100770007047144B144C1A68A04222F008021A6009
:10078000EDD91968114A41F0100119601968024445
:1007900021F00701A242196006D21A68002042F037
:1007A000010210BC1A607047094A0244A242DDD21D
:1007B0001A68002042F0020210BC1A60704700BFA5
:1007C00000127A000020024000366E01FFC991FE3F
:1007D000FF9323FD4FF41770024A034B127800FB7E
:1007E00002307047801500204400002030B4884853
:1007F00090F8A032012B4ED0022B40D090F8FC3460
:10080000012B00F0FE80022B4FF00A024FF0000196
:100810004BD090F85837012B5ED0022B00F0E380CC
:1008200090F8B439012B61D0022B00F0CE8090F803
:10083000103C012B64D0022B00F0B98090F86C3E84
:10084000012B67D0022B734B00F0A58093F8C8C032
:10085000BCF1010F6AD0BCF1020F7FD093F824C322
:10086000BCF1010F6DD0BCF1020F00F085800A2AA7
:100870006CD10022684B66481A7030BC7047674BD9
:10088000D0F8AC141B68D0F8B0245B1A9342B5D3EF
:10089000012380F8A03290F8FC3490F8B414012BB6
:1008A00010D0022B4FF00102B3D15C4BD0F80847B7
:1008B0001B681B1BD0F80C47A342AAD30124134684
:1008C00080F8FC4490F810278A4280F09E801A46F7
:1008D00090F85837012BA0D190F86C3999429FD8E5
:1008E000194690F8B4390322012B9DD190F8C83BEA
:1008F00099429CD8194690F8103C0422012B9AD1B9
:1009000090F8243E994299D8194690F86C3E0522F9
:10091000012B97D13F4B93F880C0614596D8614633
:1009200093F8C8C00622BCF1010F94D193F8DCC241
:10093000614593D8614693F824C30722BCF1010FA7
:1009400091D193F838358B4291D308224FF4177325
:1009500003FB0200304B1A7030BC70472F4CD3F8A9
:10096000D4522468641BD3F8D852AC42FFF476AF5B
:10097000012483F8C840D9E7284CD3F830552468BF
:10098000A4EB050CD3F83445A445FFF470AF012463
:1009900083F82443D5E7214C9D6F2468641BDD6FE9
:1009A000AC42FFF453AF012480F86C4EB3E71B4B0D
:1009B000D0F81C4E1B681B1BD0F8204EA342FFF43E
:1009C0003DAF012380F8103C9AE7144BD0F8C04BA0
:1009D0001B681B1BD0F8C44BA342FFF428AF0123B4
:1009E00080F8B43982E70D4BD0F864491B681B1BB3
:1009F000D0F86849A342FFF413AF012380F85837B9
:100A00006AE7022290F8101703E71146022200E776
:100A10004400002044100020801500208C15002088
:100A2000FFF7D8FE144A1268012A19D001B400F168
:100A30002000A0E8F00F01BCEFF309810164FFF78B
:100A4000D5FE01B400F12000B0E8F00F01BC016C4C
:100A500081F30988094B9842FFD06FF0020E70476E
:100A60005FF0020C8CF31488026C82F3098802494F
:100A700000220A60DAE7000038000020440000206D
:100A800000284CD038B503780446062B2ED842787F
:100A90000F2A2BD88278032A28D8C278032A25D88F
:100AA000204A981CC0B252F8235000F0EFF8637847
:100AB0001D491E4A072B51F8231052F8230017D85E
:100AC0002A68014322EA010219482A60E278A178E3
:100AD00050F823402868A240164C54F8233001FAFD
:100AE00003F3134303432B60002038BD022038BDBD
:100AF0006A68014322EA01020F486A60083BE27813
:100B0000A17850F823406868A2400C4C54F8233078
:100B100001FA03F3134303436B60002038BD022046
:100B2000704700BFD40F0008F00F0008540F0008F2
:100B3000B40F0008940F0008B40F0008940F0008C9
:100B4000F0B5054603782D4A002B83B00CBF152065
:100B5000162052F8234000F0ADF82B780326002B26
:100B60000CBF06230A23012768468DF801308DF853
:100B700000708DF802608DF80360FFF781FF2B781D
:100B800001A8002B0CBF07230B238DF804708DF8F0
:100B900005308DF806608DF80760FFF771FF0023C0
:100BA0002360636023682A7C43EA82232360A3686E
:100BB0006A7E43EAC233A360697A636801F03F0248
:100BC0001A4362602B7A5BB14FF49673B3FBF1F377
:100BD00001332362236843F00103236003B0F0BDB7
:100BE000074A686801FB02F24000B2FBF0F2042AF7
:100BF00038BF04224FF47A73E261E7E73C0000203B
:100C000040420F00074B82B053F82020136843F492
:100C1000807313605369DB07FCD553690193019B13
:100C200002B070473C000020084B41EA420153F8F3
:100C3000200082B0016143699B07FCD543690193A1
:100C400083690193019B02B0704700BF3C00002004
:100C5000054B53F820305A691006FCD519615A69C2
:100C60005205FCD4704700BF3C000020064B53F8EF
:100C7000202053691906FCD553695B07F9D5136821
:100C800043F40073136070473C00002001280CD02F
:100C90000122074982408B6913EA020003D18B6964
:100CA0001A438A617047002070470220704700BFD6
:100CB000001002400123054A03FA00F0D169014205
:100CC00002D1D3691843D061002070470010024060
:100CD0003E4B984277D83E4B1A6892035BD41A6811
:100CE000910770D55A683B4922F480325A603A4BDA
:100CF00010B5984258D8394B98424FF000035ED84F
:100D00009C469E46B0FBF1F03149354C4A680238AA
:100D100022F4E0624A604A680E2843EA02034B600C
:100D200084F800C04A6822F440424A604B6843EAB3
:100D30000E034B603FD84B6823F470134B604B6835
:100D400043EA804048600A6842F2107342F08072C1
:100D50000A6001E0013B30D00A689201FAD54B6885
:100D600042F2107223F003034B604B6843F002031E
:100D70004B60174901E0013A1FD04B68C3F3810370
:100D8000022BF8D100231749174A0B70137018462D
:100D900084F800C010BD5A68144942F480325A6089
:100DA0000D4B10B59842A6D94FF480634FF0040C58
:100DB0004FF4004EA6E7022010BD032010BD4FF4F3
:100DC000004E9C469EE70220704700BF00A24A04E6
:100DD0000010024000093D0000512502001BB70031
:100DE000891500208A1500208815002000127A003D
:100DF000002841D010B504464068FFF7A7FCE0B9D1
:100E00002378012B19D8002B2DD01C4B9A69900602
:100E100003D49A6942F020029A61184A136843F495
:100E20008033136013689903FCD56068FFF750FFA7
:100E3000134B62681A6000B910BD104942F2117379
:100E40000A6842F001020A6001E0013B02D00A6830
:100E50009207FAD5094B03205A6822F003025A6020
:100E60005A685A6010BD054A136843F001031360C5
:100E700013689B07FCD5D8E702207047001002409A
:100E800084150020014B1868704700BF84150020AE
:100E9000024A136801331360704700BF8C150020AD
:100EA00050B338B503780446012B23D84278012A81
:100EB00020D890F802C0BCF1010F1BD84168B1F1F5
:100EC000807F17D24FF0E02000250561056945EAD3
:100ED00083030361036943EA4202026171B14FF087
:100EE000E022002351619361184613694CEA030321
:100EF000136138BD012038BD01207047FFF7C2FFE4
:100F0000237803B9C0080549A1FB003189090139DB
:100F1000B1F1807FEED294F802C0E0E7D34D6210C9
:100F20000A44914200F1FF3300D1704710B511F827
:100F3000014B914203F8014FF9D110BD0346024421
:100F4000934200D1704703F8011BF9E77C1211129C
:100F50007C0000000C000000C0000000000C00003D
:100F600000C0000000000C000000C0000000000CE9
:100F7000000000C00C000000C0000000000C0000D9
:100F800000C0000000000C000000C0000000000CC9
:100F9000000000C002000000060000000A0000007F
:100FA0000E00000012000000160000001A000000F1
:100FB0001E00000000000000040000000800000007
:100FC0000C000000100000001400000018000000D9
:100FD0001C00000000080140000C0140001001400E
:100FE0000014014000180140001C01400020014095
:100FF000030000003000000000030000003000008B
:10100000000003000000300000000003000000307A
:10101000030000003000000000030000003000006A
:10102000000003000000300000000003000000305A
:10103000000101000000000000000000A086010087
:101040000008000000000000000000000000000098
:101050000000000000000000000000000000000090
:101060000100000000A24A040100000000540040FA
:0410700000580040E4
:0400000508000711D7
:00000001FF
